Archive member included because of file (symbol)

/home/vitor/git/lpcxpresso/CMSISv1p30_LPC17xx/Debug/libCMSISv1p30_LPC17xx.a(system_LPC17xx.o)
                              ./src/cr_startup_lpc17.o (SystemInit)
/home/vitor/git/lpcxpresso/Lib_EaBaseBoard/Debug/libLib_EaBaseBoard.a(oled.o)
                              ./src/main.o (oled_init)
/home/vitor/git/lpcxpresso/Lib_EaBaseBoard/Debug/libLib_EaBaseBoard.a(font5x7.o)
                              /home/vitor/git/lpcxpresso/Lib_EaBaseBoard/Debug/libLib_EaBaseBoard.a(oled.o) (font5x7)
/home/vitor/git/lpcxpresso/Lib_MCU/Debug/libLib_MCU.a(lpc17xx_gpio.o)
                              /home/vitor/git/lpcxpresso/Lib_EaBaseBoard/Debug/libLib_EaBaseBoard.a(oled.o) (GPIO_SetDir)
/home/vitor/git/lpcxpresso/Lib_MCU/Debug/libLib_MCU.a(lpc17xx_pinsel.o)
                              ./src/main.o (PINSEL_ConfigPin)
/home/vitor/git/lpcxpresso/Lib_MCU/Debug/libLib_MCU.a(lpc17xx_ssp.o)
                              ./src/main.o (SSP_Init)
/home/vitor/git/lpcxpresso/Lib_MCU/Debug/libLib_MCU.a(lpc17xx_timer.o)
                              ./src/main.o (Timer0_Wait)
/home/vitor/git/lpcxpresso/Lib_MCU/Debug/libLib_MCU.a(lpc17xx_clkpwr.o)
                              /home/vitor/git/lpcxpresso/Lib_MCU/Debug/libLib_MCU.a(lpc17xx_timer.o) (CLKPWR_SetPCLKDiv)
/usr/local/lpcxpresso_7.3.0_186/lpcxpresso/tools/bin/../lib/gcc/arm-none-eabi/4.8.4/armv7-m/libgcc.a(_aeabi_uldivmod.o)
                              /home/vitor/git/lpcxpresso/CMSISv1p30_LPC17xx/Debug/libCMSISv1p30_LPC17xx.a(system_LPC17xx.o) (__aeabi_uldivmod)
/usr/local/lpcxpresso_7.3.0_186/lpcxpresso/tools/bin/../lib/gcc/arm-none-eabi/4.8.4/armv7-m/libgcc.a(bpabi.o)
                              /usr/local/lpcxpresso_7.3.0_186/lpcxpresso/tools/bin/../lib/gcc/arm-none-eabi/4.8.4/armv7-m/libgcc.a(_aeabi_uldivmod.o) (__gnu_uldivmod_helper)
/usr/local/lpcxpresso_7.3.0_186/lpcxpresso/tools/bin/../lib/gcc/arm-none-eabi/4.8.4/armv7-m/libgcc.a(_dvmd_tls.o)
                              /usr/local/lpcxpresso_7.3.0_186/lpcxpresso/tools/bin/../lib/gcc/arm-none-eabi/4.8.4/armv7-m/libgcc.a(_aeabi_uldivmod.o) (__aeabi_ldiv0)
/usr/local/lpcxpresso_7.3.0_186/lpcxpresso/tools/bin/../lib/gcc/arm-none-eabi/4.8.4/armv7-m/libgcc.a(_divdi3.o)
                              /usr/local/lpcxpresso_7.3.0_186/lpcxpresso/tools/bin/../lib/gcc/arm-none-eabi/4.8.4/armv7-m/libgcc.a(bpabi.o) (__divdi3)
/usr/local/lpcxpresso_7.3.0_186/lpcxpresso/tools/bin/../lib/gcc/arm-none-eabi/4.8.4/armv7-m/libgcc.a(_udivdi3.o)
                              /usr/local/lpcxpresso_7.3.0_186/lpcxpresso/tools/bin/../lib/gcc/arm-none-eabi/4.8.4/armv7-m/libgcc.a(bpabi.o) (__udivdi3)
/usr/local/lpcxpresso_7.3.0_186/lpcxpresso/tools/bin/../lib/gcc/arm-none-eabi/4.8.4/../../../../arm-none-eabi/lib/armv7-m/libc.a(lib_a-memset.o)
                              /home/vitor/git/lpcxpresso/Lib_EaBaseBoard/Debug/libLib_EaBaseBoard.a(oled.o) (memset)

Discarded input sections

 .group         0x00000000        0x8 ./src/cr_startup_lpc17.o
 .group         0x00000000        0x8 ./src/cr_startup_lpc17.o
 .group         0x00000000        0x8 ./src/cr_startup_lpc17.o
 .group         0x00000000        0x8 ./src/cr_startup_lpc17.o
 .text          0x00000000        0x0 ./src/cr_startup_lpc17.o
 .data          0x00000000        0x0 ./src/cr_startup_lpc17.o
 .bss           0x00000000        0x0 ./src/cr_startup_lpc17.o
 .text.SysTick_Handler
                0x00000000        0x8 ./src/cr_startup_lpc17.o
 .group         0x00000000        0x8 ./src/main.o
 .group         0x00000000        0x8 ./src/main.o
 .group         0x00000000        0x8 ./src/main.o
 .group         0x00000000        0x8 ./src/main.o
 .group         0x00000000        0x8 ./src/main.o
 .group         0x00000000        0x8 ./src/main.o
 .group         0x00000000        0x8 ./src/main.o
 .group         0x00000000        0x8 ./src/main.o
 .group         0x00000000        0x8 ./src/main.o
Memory Configuration

Name             Origin             Length             Attributes
MFlash512        0x00000000         0x00080000         xr
RamLoc32         0x10000000         0x00008000         xrw
RamAHB32         0x2007c000         0x00008000         xrw
*default*        0x00000000         0xffffffff

Linker script and memory map

LOAD ./src/cr_startup_lpc17.o
LOAD ./src/main.o
LOAD /home/vitor/git/lpcxpresso/CMSISv1p30_LPC17xx/Debug/libCMSISv1p30_LPC17xx.a
LOAD /home/vitor/git/lpcxpresso/Lib_EaBaseBoard/Debug/libLib_EaBaseBoard.a
LOAD /home/vitor/git/lpcxpresso/Lib_MCU/Debug/libLib_MCU.a
START GROUP
LOAD /usr/local/lpcxpresso_7.3.0_186/lpcxpresso/tools/bin/../lib/gcc/arm-none-eabi/4.8.4/armv7-m/libgcc.a
LOAD /usr/local/lpcxpresso_7.3.0_186/lpcxpresso/tools/bin/../lib/gcc/arm-none-eabi/4.8.4/../../../../arm-none-eabi/lib/armv7-m/libc.a
LOAD /usr/local/lpcxpresso_7.3.0_186/lpcxpresso/tools/bin/../lib/gcc/arm-none-eabi/4.8.4/../../../../arm-none-eabi/lib/armv7-m/libm.a
LOAD /usr/local/lpcxpresso_7.3.0_186/lpcxpresso/tools/bin/../lib/gcc/arm-none-eabi/4.8.4/../../../../arm-none-eabi/lib/armv7-m/libcr_newlib_semihost.a
END GROUP
                0x00080000                __top_MFlash512 = 0x80000
                0x10008000                __top_RamLoc32 = 0x10008000
                0x20084000                __top_RamAHB32 = 0x20084000

.text           0x00000000     0x1ef8
 FILL mask 0xff
                0x00000000                __vectors_start__ = ABSOLUTE (.)
 *(.isr_vector)
 .isr_vector    0x00000000       0xcc ./src/cr_startup_lpc17.o
                0x00000000                g_pfnVectors
                0x000000cc                . = ALIGN (0x4)
                0x000000cc                __section_table_start = .
                0x000000cc                __data_section_table = .
                0x000000cc        0x4 LONG 0x1f00 LOADADDR (.data)
                0x000000d0        0x4 LONG 0x10000000 ADDR (.data)
                0x000000d4        0x4 LONG 0x8 SIZEOF (.data)
                0x000000d8        0x4 LONG 0x1f00 LOADADDR (.data_RAM2)
                0x000000dc        0x4 LONG 0x2007c000 ADDR (.data_RAM2)
                0x000000e0        0x4 LONG 0x0 SIZEOF (.data_RAM2)
                0x000000e4                __data_section_table_end = .
                0x000000e4                __bss_section_table = .
                0x000000e4        0x4 LONG 0x10000008 ADDR (.bss)
                0x000000e8        0x4 LONG 0x32c SIZEOF (.bss)
                0x000000ec        0x4 LONG 0x2007c000 ADDR (.bss_RAM2)
                0x000000f0        0x4 LONG 0x0 SIZEOF (.bss_RAM2)
                0x000000f4                __bss_section_table_end = .
                0x000000f4                __section_table_end = .
 *(.after_vectors*)
 *(.text*)
 .text.ResetISR
                0x000000f4       0x5c ./src/cr_startup_lpc17.o
                0x000000f4                ResetISR
 .text.NMI_Handler
                0x00000150        0x8 ./src/cr_startup_lpc17.o
                0x00000150                NMI_Handler
 .text.HardFault_Handler
                0x00000158        0x8 ./src/cr_startup_lpc17.o
                0x00000158                HardFault_Handler
 .text.MemManage_Handler
                0x00000160        0x8 ./src/cr_startup_lpc17.o
                0x00000160                MemManage_Handler
 .text.BusFault_Handler
                0x00000168        0x8 ./src/cr_startup_lpc17.o
                0x00000168                BusFault_Handler
 .text.UsageFault_Handler
                0x00000170        0x8 ./src/cr_startup_lpc17.o
                0x00000170                UsageFault_Handler
 .text.SVCall_Handler
                0x00000178        0x8 ./src/cr_startup_lpc17.o
                0x00000178                SVCall_Handler
 .text.DebugMon_Handler
                0x00000180        0x8 ./src/cr_startup_lpc17.o
                0x00000180                DebugMon_Handler
 .text.PendSV_Handler
                0x00000188        0x8 ./src/cr_startup_lpc17.o
                0x00000188                PendSV_Handler
 .text.IntDefaultHandler
                0x00000190        0x8 ./src/cr_startup_lpc17.o
                0x00000190                TIMER2_IRQHandler
                0x00000190                RIT_IRQHandler
                0x00000190                I2C0_IRQHandler
                0x00000190                USBActivity_IRQHandler
                0x00000190                PWM1_IRQHandler
                0x00000190                I2C1_IRQHandler
                0x00000190                EINT2_IRQHandler
                0x00000190                UART1_IRQHandler
                0x00000190                EINT3_IRQHandler
                0x00000190                CANActivity_IRQHandler
                0x00000190                TIMER3_IRQHandler
                0x00000190                UART0_IRQHandler
                0x00000190                IntDefaultHandler
                0x00000190                PLL0_IRQHandler
                0x00000190                CAN_IRQHandler
                0x00000190                PLL1_IRQHandler
                0x00000190                SSP0_IRQHandler
                0x00000190                I2S_IRQHandler
                0x00000190                I2C2_IRQHandler
                0x00000190                RTC_IRQHandler
                0x00000190                TIMER0_IRQHandler
                0x00000190                SPI_IRQHandler
                0x00000190                EINT1_IRQHandler
                0x00000190                TIMER1_IRQHandler
                0x00000190                UART2_IRQHandler
                0x00000190                ADC_IRQHandler
                0x00000190                SSP1_IRQHandler
                0x00000190                USB_IRQHandler
                0x00000190                BOD_IRQHandler
                0x00000190                WDT_IRQHandler
                0x00000190                QEI_IRQHandler
                0x00000190                EINT0_IRQHandler
                0x00000190                DMA_IRQHandler
                0x00000190                UART3_IRQHandler
                0x00000190                MCPWM_IRQHandler
                0x00000190                ENET_IRQHandler
 .text.NVIC_SetPriority
                0x00000198       0x54 ./src/main.o
 .text.SysTick_Config
                0x000001ec       0x44 ./src/main.o
 .text.intToString
                0x00000230       0xc0 ./src/main.o
 .text.SysTick_Handler
                0x000002f0       0x1c ./src/main.o
                0x000002f0                SysTick_Handler
 .text.init_ssp
                0x0000030c       0x78 ./src/main.o
 .text.main     0x00000384       0xc0 ./src/main.o
                0x00000384                main
 .text.check_failed
                0x00000444        0xc ./src/main.o
                0x00000444                check_failed
 .text.SystemInit
                0x00000450       0xec /home/vitor/git/lpcxpresso/CMSISv1p30_LPC17xx/Debug/libCMSISv1p30_LPC17xx.a(system_LPC17xx.o)
                0x00000450                SystemInit
 .text.writeCommand
                0x0000053c       0x40 /home/vitor/git/lpcxpresso/Lib_EaBaseBoard/Debug/libLib_EaBaseBoard.a(oled.o)
 .text.runInitSequence
                0x0000057c       0xd0 /home/vitor/git/lpcxpresso/Lib_EaBaseBoard/Debug/libLib_EaBaseBoard.a(oled.o)
 .text.writeData
                0x0000064c       0x40 /home/vitor/git/lpcxpresso/Lib_EaBaseBoard/Debug/libLib_EaBaseBoard.a(oled.o)
 .text.writeDataLen
                0x0000068c       0x4c /home/vitor/git/lpcxpresso/Lib_EaBaseBoard/Debug/libLib_EaBaseBoard.a(oled.o)
 .text.oled_init
                0x000006d8       0x5c /home/vitor/git/lpcxpresso/Lib_EaBaseBoard/Debug/libLib_EaBaseBoard.a(oled.o)
                0x000006d8                oled_init
 .text.oled_putPixel
                0x00000734       0xac /home/vitor/git/lpcxpresso/Lib_EaBaseBoard/Debug/libLib_EaBaseBoard.a(oled.o)
                0x00000734                oled_putPixel
 .text.vLine    0x000007e0       0x28 /home/vitor/git/lpcxpresso/Lib_EaBaseBoard/Debug/libLib_EaBaseBoard.a(oled.o)
 .text.hLine    0x00000808       0x28 /home/vitor/git/lpcxpresso/Lib_EaBaseBoard/Debug/libLib_EaBaseBoard.a(oled.o)
 .text.oled_fillRect
                0x00000830       0x64 /home/vitor/git/lpcxpresso/Lib_EaBaseBoard/Debug/libLib_EaBaseBoard.a(oled.o)
                0x00000830                oled_fillRect
 .text.oled_clearScreen
                0x00000894       0x50 /home/vitor/git/lpcxpresso/Lib_EaBaseBoard/Debug/libLib_EaBaseBoard.a(oled.o)
                0x00000894                oled_clearScreen
 .text.oled_putChar
                0x000008e4       0x9c /home/vitor/git/lpcxpresso/Lib_EaBaseBoard/Debug/libLib_EaBaseBoard.a(oled.o)
                0x000008e4                oled_putChar
 .text.oled_putString
                0x00000980       0x34 /home/vitor/git/lpcxpresso/Lib_EaBaseBoard/Debug/libLib_EaBaseBoard.a(oled.o)
                0x00000980                oled_putString
 .text.GPIO_GetPointer
                0x000009b4       0x3c /home/vitor/git/lpcxpresso/Lib_MCU/Debug/libLib_MCU.a(lpc17xx_gpio.o)
 .text.GPIO_SetDir
                0x000009f0       0x20 /home/vitor/git/lpcxpresso/Lib_MCU/Debug/libLib_MCU.a(lpc17xx_gpio.o)
                0x000009f0                GPIO_SetDir
 .text.GPIO_SetValue
                0x00000a10       0x10 /home/vitor/git/lpcxpresso/Lib_MCU/Debug/libLib_MCU.a(lpc17xx_gpio.o)
                0x00000a10                GPIO_SetValue
 .text.GPIO_ClearValue
                0x00000a20       0x10 /home/vitor/git/lpcxpresso/Lib_MCU/Debug/libLib_MCU.a(lpc17xx_gpio.o)
                0x00000a20                GPIO_ClearValue
 .text.PINSEL_SetPinFunc
                0x00000a30       0x38 /home/vitor/git/lpcxpresso/Lib_MCU/Debug/libLib_MCU.a(lpc17xx_pinsel.o)
                0x00000a30                PINSEL_SetPinFunc
 .text.PINSEL_SetResistorMode
                0x00000a68       0x34 /home/vitor/git/lpcxpresso/Lib_MCU/Debug/libLib_MCU.a(lpc17xx_pinsel.o)
                0x00000a68                PINSEL_SetResistorMode
 .text.PINSEL_SetOpenDrainMode
                0x00000a9c       0x30 /home/vitor/git/lpcxpresso/Lib_MCU/Debug/libLib_MCU.a(lpc17xx_pinsel.o)
                0x00000a9c                PINSEL_SetOpenDrainMode
 .text.PINSEL_ConfigPin
                0x00000acc       0x24 /home/vitor/git/lpcxpresso/Lib_MCU/Debug/libLib_MCU.a(lpc17xx_pinsel.o)
                0x00000acc                PINSEL_ConfigPin
 .text.SSP_getNum
                0x00000af0       0x20 /home/vitor/git/lpcxpresso/Lib_MCU/Debug/libLib_MCU.a(lpc17xx_ssp.o)
 .text.SSP_SetClock
                0x00000b10       0x84 /home/vitor/git/lpcxpresso/Lib_MCU/Debug/libLib_MCU.a(lpc17xx_ssp.o)
                0x00000b10                SSP_SetClock
 .text.SSP_Init
                0x00000b94       0x9c /home/vitor/git/lpcxpresso/Lib_MCU/Debug/libLib_MCU.a(lpc17xx_ssp.o)
                0x00000b94                SSP_Init
 .text.SSP_ConfigStructInit
                0x00000c30       0x18 /home/vitor/git/lpcxpresso/Lib_MCU/Debug/libLib_MCU.a(lpc17xx_ssp.o)
                0x00000c30                SSP_ConfigStructInit
 .text.SSP_Cmd  0x00000c48       0x4c /home/vitor/git/lpcxpresso/Lib_MCU/Debug/libLib_MCU.a(lpc17xx_ssp.o)
                0x00000c48                SSP_Cmd
 .text.SSP_SendData
                0x00000c94       0x2c /home/vitor/git/lpcxpresso/Lib_MCU/Debug/libLib_MCU.a(lpc17xx_ssp.o)
                0x00000c94                SSP_SendData
 .text.SSP_ReceiveData
                0x00000cc0       0x2c /home/vitor/git/lpcxpresso/Lib_MCU/Debug/libLib_MCU.a(lpc17xx_ssp.o)
                0x00000cc0                SSP_ReceiveData
 .text.SSP_IntHandler
                0x00000cec      0x178 /home/vitor/git/lpcxpresso/Lib_MCU/Debug/libLib_MCU.a(lpc17xx_ssp.o)
                0x00000cec                SSP_IntHandler
 .text.SSP_ReadWrite
                0x00000e64      0x22c /home/vitor/git/lpcxpresso/Lib_MCU/Debug/libLib_MCU.a(lpc17xx_ssp.o)
                0x00000e64                SSP_ReadWrite
 .text.TIM_GetPClock
                0x00001090       0x38 /home/vitor/git/lpcxpresso/Lib_MCU/Debug/libLib_MCU.a(lpc17xx_timer.o)
                0x00001090                TIM_GetPClock
 .text.TIM_ConverUSecToVal
                0x000010c8       0x1c /home/vitor/git/lpcxpresso/Lib_MCU/Debug/libLib_MCU.a(lpc17xx_timer.o)
                0x000010c8                TIM_ConverUSecToVal
 .text.TIM_ConverPtrToTimeNum
                0x000010e4       0x38 /home/vitor/git/lpcxpresso/Lib_MCU/Debug/libLib_MCU.a(lpc17xx_timer.o)
                0x000010e4                TIM_ConverPtrToTimeNum
 .text.TIM_GetIntStatus
                0x0000111c       0x58 /home/vitor/git/lpcxpresso/Lib_MCU/Debug/libLib_MCU.a(lpc17xx_timer.o)
                0x0000111c                TIM_GetIntStatus
 .text.TIM_ClearIntPending
                0x00001174       0x4c /home/vitor/git/lpcxpresso/Lib_MCU/Debug/libLib_MCU.a(lpc17xx_timer.o)
                0x00001174                TIM_ClearIntPending
 .text.TIM_Init
                0x000011c0       0xfc /home/vitor/git/lpcxpresso/Lib_MCU/Debug/libLib_MCU.a(lpc17xx_timer.o)
                0x000011c0                TIM_Init
 .text.TIM_Cmd  0x000012bc       0x4c /home/vitor/git/lpcxpresso/Lib_MCU/Debug/libLib_MCU.a(lpc17xx_timer.o)
                0x000012bc                TIM_Cmd
 .text.TIM_ConfigMatch
                0x00001308       0xd4 /home/vitor/git/lpcxpresso/Lib_MCU/Debug/libLib_MCU.a(lpc17xx_timer.o)
                0x00001308                TIM_ConfigMatch
 .text.Timer0_Wait
                0x000013dc       0x68 /home/vitor/git/lpcxpresso/Lib_MCU/Debug/libLib_MCU.a(lpc17xx_timer.o)
                0x000013dc                Timer0_Wait
 .text.CLKPWR_SetPCLKDiv
                0x00001444       0x60 /home/vitor/git/lpcxpresso/Lib_MCU/Debug/libLib_MCU.a(lpc17xx_clkpwr.o)
                0x00001444                CLKPWR_SetPCLKDiv
 .text.CLKPWR_GetPCLKSEL
                0x000014a4       0x24 /home/vitor/git/lpcxpresso/Lib_MCU/Debug/libLib_MCU.a(lpc17xx_clkpwr.o)
                0x000014a4                CLKPWR_GetPCLKSEL
 .text.CLKPWR_GetPCLK
                0x000014c8       0x28 /home/vitor/git/lpcxpresso/Lib_MCU/Debug/libLib_MCU.a(lpc17xx_clkpwr.o)
                0x000014c8                CLKPWR_GetPCLK
 .text.CLKPWR_ConfigPPWR
                0x000014f0       0x34 /home/vitor/git/lpcxpresso/Lib_MCU/Debug/libLib_MCU.a(lpc17xx_clkpwr.o)
                0x000014f0                CLKPWR_ConfigPPWR
 .text          0x00001524       0x2c /usr/local/lpcxpresso_7.3.0_186/lpcxpresso/tools/bin/../lib/gcc/arm-none-eabi/4.8.4/armv7-m/libgcc.a(_aeabi_uldivmod.o)
                0x00001524                __aeabi_uldivmod
 .text          0x00001550       0x60 /usr/local/lpcxpresso_7.3.0_186/lpcxpresso/tools/bin/../lib/gcc/arm-none-eabi/4.8.4/armv7-m/libgcc.a(bpabi.o)
                0x00001550                __gnu_ldivmod_helper
                0x00001580                __gnu_uldivmod_helper
 .text          0x000015b0        0x4 /usr/local/lpcxpresso_7.3.0_186/lpcxpresso/tools/bin/../lib/gcc/arm-none-eabi/4.8.4/armv7-m/libgcc.a(_dvmd_tls.o)
                0x000015b0                __aeabi_ldiv0
                0x000015b0                __aeabi_idiv0
 .text          0x000015b4      0x2a0 /usr/local/lpcxpresso_7.3.0_186/lpcxpresso/tools/bin/../lib/gcc/arm-none-eabi/4.8.4/armv7-m/libgcc.a(_divdi3.o)
                0x000015b4                __divdi3
 .text          0x00001854      0x290 /usr/local/lpcxpresso_7.3.0_186/lpcxpresso/tools/bin/../lib/gcc/arm-none-eabi/4.8.4/armv7-m/libgcc.a(_udivdi3.o)
                0x00001854                __udivdi3
 .text.memset   0x00001ae4       0x94 /usr/local/lpcxpresso_7.3.0_186/lpcxpresso/tools/bin/../lib/gcc/arm-none-eabi/4.8.4/../../../../arm-none-eabi/lib/armv7-m/libc.a(lib_a-memset.o)
                0x00001ae4                memset
 *(.rodata .rodata.* .constdata .constdata.*)
 .rodata        0x00001b78       0x48 ./src/main.o
 .rodata        0x00001bc0        0x8 /home/vitor/git/lpcxpresso/Lib_EaBaseBoard/Debug/libLib_EaBaseBoard.a(oled.o)
 .rodata        0x00001bc8      0x300 /home/vitor/git/lpcxpresso/Lib_EaBaseBoard/Debug/libLib_EaBaseBoard.a(font5x7.o)
                0x00001bc8                font5x7
 .rodata.str1.4
                0x00001ec8       0x15 /home/vitor/git/lpcxpresso/Lib_MCU/Debug/libLib_MCU.a(lpc17xx_ssp.o)
                                 0x18 (size before relaxing)
 *fill*         0x00001edd        0x3 
 .rodata.str1.4
                0x00001ee0       0x18 /home/vitor/git/lpcxpresso/Lib_MCU/Debug/libLib_MCU.a(lpc17xx_timer.o)
                0x00001ef8                . = ALIGN (0x4)

.glue_7         0x00001ef8        0x0
 .glue_7        0x00000000        0x0 linker stubs

.glue_7t        0x00001ef8        0x0
 .glue_7t       0x00000000        0x0 linker stubs

.vfp11_veneer   0x00001ef8        0x0
 .vfp11_veneer  0x00000000        0x0 linker stubs

.v4_bx          0x00001ef8        0x0
 .v4_bx         0x00000000        0x0 linker stubs

.iplt           0x00001ef8        0x0
 .iplt          0x00000000        0x0 ./src/cr_startup_lpc17.o

.ARM.extab
 *(.ARM.extab* .gnu.linkonce.armextab.*)
                0x00001ef8                __exidx_start = .

.ARM.exidx      0x00001ef8        0x8
 *(.ARM.exidx* .gnu.linkonce.armexidx.*)
 .ARM.exidx     0x00001ef8        0x8 /usr/local/lpcxpresso_7.3.0_186/lpcxpresso/tools/bin/../lib/gcc/arm-none-eabi/4.8.4/armv7-m/libgcc.a(_divdi3.o)
 .ARM.exidx     0x00001f00        0x0 /usr/local/lpcxpresso_7.3.0_186/lpcxpresso/tools/bin/../lib/gcc/arm-none-eabi/4.8.4/armv7-m/libgcc.a(_udivdi3.o)
                                  0x8 (size before relaxing)
                0x00001f00                __exidx_end = .
                0x00001f00                _etext = .

.rel.dyn        0x00001f00        0x0
 .rel.iplt      0x00000000        0x0 ./src/cr_startup_lpc17.o

.data_RAM2      0x2007c000        0x0 load address 0x00001f00
 FILL mask 0xff
 *(.ramfunc.$RAM2)
 *(.ramfunc.$RamAHB32)
 *(.data.$RAM2*)
 *(.data.$RamAHB32*)
                0x2007c000                . = ALIGN (0x4)

.uninit_RESERVED
                0x10000000        0x0
 *(.bss.$RESERVED*)
                0x10000000                . = ALIGN (0x4)
                0x10000000                _end_uninit_RESERVED = .

.data           0x10000000        0x8 load address 0x00001f00
 FILL mask 0xff
                0x10000000                _data = .
 *(vtable)
 *(.ramfunc*)
 *(.data*)
 .data          0x10000000        0x4 ./src/main.o
 .data          0x10000004        0x4 /home/vitor/git/lpcxpresso/CMSISv1p30_LPC17xx/Debug/libCMSISv1p30_LPC17xx.a(system_LPC17xx.o)
                0x10000004                SystemCoreClock
                0x10000008                . = ALIGN (0x4)
                0x10000008                _edata = .

.igot.plt       0x10000008        0x0 load address 0x00001f08
 .igot.plt      0x00000000        0x0 ./src/cr_startup_lpc17.o

.bss_RAM2       0x2007c000        0x0
 *(.bss.$RAM2*)
 *(.bss.$RamAHB32*)
                0x2007c000                . = ALIGN (0x4)

.bss            0x10000008      0x32c
                0x10000008                _bss = .
 *(.bss*)
 .bss           0x10000008       0x14 ./src/main.o
                0x10000018                contador
 .bss           0x1000001c      0x300 /home/vitor/git/lpcxpresso/Lib_EaBaseBoard/Debug/libLib_EaBaseBoard.a(oled.o)
 .bss           0x1000031c       0x18 /home/vitor/git/lpcxpresso/Lib_MCU/Debug/libLib_MCU.a(lpc17xx_ssp.o)
 *(COMMON)
                0x10000334                . = ALIGN (0x4)
                0x10000334                _ebss = .
                0x10000334                PROVIDE (end, .)

.noinit_RAM2    0x2007c000        0x0
 *(.noinit.$RAM2*)
 *(.noinit.$RamAHB32*)
                0x2007c000                . = ALIGN (0x4)

.noinit         0x10000334        0x0
                0x10000334                _noinit = .
 *(.noinit*)
                0x10000334                . = ALIGN (0x4)
                0x10000334                _end_noinit = .
                0x10000334                PROVIDE (_pvHeapStart, .)
                0x10008000                PROVIDE (_vStackTop, (__top_RamLoc32 - 0x0))
OUTPUT(oled_periph.axf elf32-littlearm)

.debug_info     0x00000000     0x5222
 .debug_info    0x00000000      0x1b1 ./src/cr_startup_lpc17.o
 .debug_info    0x000001b1      0x7db ./src/main.o
 .debug_info    0x0000098c      0x30d /home/vitor/git/lpcxpresso/CMSISv1p30_LPC17xx/Debug/libCMSISv1p30_LPC17xx.a(system_LPC17xx.o)
 .debug_info    0x00000c99     0x1394 /home/vitor/git/lpcxpresso/Lib_EaBaseBoard/Debug/libLib_EaBaseBoard.a(oled.o)
 .debug_info    0x0000202d       0x5c /home/vitor/git/lpcxpresso/Lib_EaBaseBoard/Debug/libLib_EaBaseBoard.a(font5x7.o)
 .debug_info    0x00002089      0xbdd /home/vitor/git/lpcxpresso/Lib_MCU/Debug/libLib_MCU.a(lpc17xx_gpio.o)
 .debug_info    0x00002c66      0x486 /home/vitor/git/lpcxpresso/Lib_MCU/Debug/libLib_MCU.a(lpc17xx_pinsel.o)
 .debug_info    0x000030ec      0xd7e /home/vitor/git/lpcxpresso/Lib_MCU/Debug/libLib_MCU.a(lpc17xx_ssp.o)
 .debug_info    0x00003e6a      0xd87 /home/vitor/git/lpcxpresso/Lib_MCU/Debug/libLib_MCU.a(lpc17xx_timer.o)
 .debug_info    0x00004bf1      0x631 /home/vitor/git/lpcxpresso/Lib_MCU/Debug/libLib_MCU.a(lpc17xx_clkpwr.o)

.debug_abbrev   0x00000000     0x109b
 .debug_abbrev  0x00000000       0xb9 ./src/cr_startup_lpc17.o
 .debug_abbrev  0x000000b9      0x24b ./src/main.o
 .debug_abbrev  0x00000304       0xe6 /home/vitor/git/lpcxpresso/CMSISv1p30_LPC17xx/Debug/libCMSISv1p30_LPC17xx.a(system_LPC17xx.o)
 .debug_abbrev  0x000003ea      0x2a3 /home/vitor/git/lpcxpresso/Lib_EaBaseBoard/Debug/libLib_EaBaseBoard.a(oled.o)
 .debug_abbrev  0x0000068d       0x48 /home/vitor/git/lpcxpresso/Lib_EaBaseBoard/Debug/libLib_EaBaseBoard.a(font5x7.o)
 .debug_abbrev  0x000006d5      0x1d3 /home/vitor/git/lpcxpresso/Lib_MCU/Debug/libLib_MCU.a(lpc17xx_gpio.o)
 .debug_abbrev  0x000008a8      0x156 /home/vitor/git/lpcxpresso/Lib_MCU/Debug/libLib_MCU.a(lpc17xx_pinsel.o)
 .debug_abbrev  0x000009fe      0x267 /home/vitor/git/lpcxpresso/Lib_MCU/Debug/libLib_MCU.a(lpc17xx_ssp.o)
 .debug_abbrev  0x00000c65      0x280 /home/vitor/git/lpcxpresso/Lib_MCU/Debug/libLib_MCU.a(lpc17xx_timer.o)
 .debug_abbrev  0x00000ee5      0x1b6 /home/vitor/git/lpcxpresso/Lib_MCU/Debug/libLib_MCU.a(lpc17xx_clkpwr.o)

.debug_aranges  0x00000000      0x450
 .debug_aranges
                0x00000000       0x70 ./src/cr_startup_lpc17.o
 .debug_aranges
                0x00000070       0x50 ./src/main.o
 .debug_aranges
                0x000000c0       0x28 /home/vitor/git/lpcxpresso/CMSISv1p30_LPC17xx/Debug/libCMSISv1p30_LPC17xx.a(system_LPC17xx.o)
 .debug_aranges
                0x000000e8       0x90 /home/vitor/git/lpcxpresso/Lib_EaBaseBoard/Debug/libLib_EaBaseBoard.a(oled.o)
 .debug_aranges
                0x00000178       0x18 /home/vitor/git/lpcxpresso/Lib_EaBaseBoard/Debug/libLib_EaBaseBoard.a(font5x7.o)
 .debug_aranges
                0x00000190       0xc8 /home/vitor/git/lpcxpresso/Lib_MCU/Debug/libLib_MCU.a(lpc17xx_gpio.o)
 .debug_aranges
                0x00000258       0x48 /home/vitor/git/lpcxpresso/Lib_MCU/Debug/libLib_MCU.a(lpc17xx_pinsel.o)
 .debug_aranges
                0x000002a0       0xb8 /home/vitor/git/lpcxpresso/Lib_MCU/Debug/libLib_MCU.a(lpc17xx_ssp.o)
 .debug_aranges
                0x00000358       0xa0 /home/vitor/git/lpcxpresso/Lib_MCU/Debug/libLib_MCU.a(lpc17xx_timer.o)
 .debug_aranges
                0x000003f8       0x58 /home/vitor/git/lpcxpresso/Lib_MCU/Debug/libLib_MCU.a(lpc17xx_clkpwr.o)

.debug_ranges   0x00000000      0x3a8
 .debug_ranges  0x00000000       0x60 ./src/cr_startup_lpc17.o
 .debug_ranges  0x00000060       0x40 ./src/main.o
 .debug_ranges  0x000000a0       0x18 /home/vitor/git/lpcxpresso/CMSISv1p30_LPC17xx/Debug/libCMSISv1p30_LPC17xx.a(system_LPC17xx.o)
 .debug_ranges  0x000000b8       0x80 /home/vitor/git/lpcxpresso/Lib_EaBaseBoard/Debug/libLib_EaBaseBoard.a(oled.o)
 .debug_ranges  0x00000138       0xb8 /home/vitor/git/lpcxpresso/Lib_MCU/Debug/libLib_MCU.a(lpc17xx_gpio.o)
 .debug_ranges  0x000001f0       0x38 /home/vitor/git/lpcxpresso/Lib_MCU/Debug/libLib_MCU.a(lpc17xx_pinsel.o)
 .debug_ranges  0x00000228       0xa8 /home/vitor/git/lpcxpresso/Lib_MCU/Debug/libLib_MCU.a(lpc17xx_ssp.o)
 .debug_ranges  0x000002d0       0x90 /home/vitor/git/lpcxpresso/Lib_MCU/Debug/libLib_MCU.a(lpc17xx_timer.o)
 .debug_ranges  0x00000360       0x48 /home/vitor/git/lpcxpresso/Lib_MCU/Debug/libLib_MCU.a(lpc17xx_clkpwr.o)

.debug_macro    0x00000000     0x56ec
 .debug_macro   0x00000000       0x58 ./src/cr_startup_lpc17.o
 .debug_macro   0x00000058      0x856 ./src/cr_startup_lpc17.o
 .debug_macro   0x000008ae       0x16 ./src/cr_startup_lpc17.o
 .debug_macro   0x000008c4       0x44 ./src/cr_startup_lpc17.o
 .debug_macro   0x00000908      0x209 ./src/cr_startup_lpc17.o
 .debug_macro   0x00000b11       0xa4 ./src/main.o
 .debug_macro   0x00000bb5       0x1c ./src/main.o
 .debug_macro   0x00000bd1       0x22 ./src/main.o
 .debug_macro   0x00000bf3      0x7b7 ./src/main.o
 .debug_macro   0x000013aa      0x2c7 ./src/main.o
 .debug_macro   0x00001671       0x63 ./src/main.o
 .debug_macro   0x000016d4      0x143 ./src/main.o
 .debug_macro   0x00001817       0x46 ./src/main.o
 .debug_macro   0x0000185d      0x2af ./src/main.o
 .debug_macro   0x00001b0c       0xe9 ./src/main.o
 .debug_macro   0x00001bf5       0x16 ./src/main.o
 .debug_macro   0x00001c0b      0x113 /home/vitor/git/lpcxpresso/CMSISv1p30_LPC17xx/Debug/libCMSISv1p30_LPC17xx.a(system_LPC17xx.o)
 .debug_macro   0x00001d1e      0x850 /home/vitor/git/lpcxpresso/CMSISv1p30_LPC17xx/Debug/libCMSISv1p30_LPC17xx.a(system_LPC17xx.o)
 .debug_macro   0x0000256e       0x10 /home/vitor/git/lpcxpresso/CMSISv1p30_LPC17xx/Debug/libCMSISv1p30_LPC17xx.a(system_LPC17xx.o)
 .debug_macro   0x0000257e      0x122 /home/vitor/git/lpcxpresso/CMSISv1p30_LPC17xx/Debug/libCMSISv1p30_LPC17xx.a(system_LPC17xx.o)
 .debug_macro   0x000026a0      0x5b9 /home/vitor/git/lpcxpresso/CMSISv1p30_LPC17xx/Debug/libCMSISv1p30_LPC17xx.a(system_LPC17xx.o)
 .debug_macro   0x00002c59      0x7d5 /home/vitor/git/lpcxpresso/CMSISv1p30_LPC17xx/Debug/libCMSISv1p30_LPC17xx.a(system_LPC17xx.o)
 .debug_macro   0x0000342e      0x170 /home/vitor/git/lpcxpresso/Lib_EaBaseBoard/Debug/libLib_EaBaseBoard.a(oled.o)
 .debug_macro   0x0000359e       0x58 /home/vitor/git/lpcxpresso/Lib_EaBaseBoard/Debug/libLib_EaBaseBoard.a(oled.o)
 .debug_macro   0x000035f6       0x35 /home/vitor/git/lpcxpresso/Lib_EaBaseBoard/Debug/libLib_EaBaseBoard.a(oled.o)
 .debug_macro   0x0000362b       0xa2 /home/vitor/git/lpcxpresso/Lib_EaBaseBoard/Debug/libLib_EaBaseBoard.a(oled.o)
 .debug_macro   0x000036cd      0x166 /home/vitor/git/lpcxpresso/Lib_EaBaseBoard/Debug/libLib_EaBaseBoard.a(oled.o)
 .debug_macro   0x00003833       0x4a /home/vitor/git/lpcxpresso/Lib_EaBaseBoard/Debug/libLib_EaBaseBoard.a(oled.o)
 .debug_macro   0x0000387d       0x52 /home/vitor/git/lpcxpresso/Lib_EaBaseBoard/Debug/libLib_EaBaseBoard.a(oled.o)
 .debug_macro   0x000038cf       0x16 /home/vitor/git/lpcxpresso/Lib_EaBaseBoard/Debug/libLib_EaBaseBoard.a(oled.o)
 .debug_macro   0x000038e5       0x43 /home/vitor/git/lpcxpresso/Lib_EaBaseBoard/Debug/libLib_EaBaseBoard.a(oled.o)
 .debug_macro   0x00003928      0x180 /home/vitor/git/lpcxpresso/Lib_EaBaseBoard/Debug/libLib_EaBaseBoard.a(oled.o)
 .debug_macro   0x00003aa8      0x2a6 /home/vitor/git/lpcxpresso/Lib_EaBaseBoard/Debug/libLib_EaBaseBoard.a(oled.o)
 .debug_macro   0x00003d4e       0x10 /home/vitor/git/lpcxpresso/Lib_EaBaseBoard/Debug/libLib_EaBaseBoard.a(oled.o)
 .debug_macro   0x00003d5e       0x35 /home/vitor/git/lpcxpresso/Lib_EaBaseBoard/Debug/libLib_EaBaseBoard.a(oled.o)
 .debug_macro   0x00003d93       0x1f /home/vitor/git/lpcxpresso/Lib_EaBaseBoard/Debug/libLib_EaBaseBoard.a(oled.o)
 .debug_macro   0x00003db2      0x20f /home/vitor/git/lpcxpresso/Lib_EaBaseBoard/Debug/libLib_EaBaseBoard.a(oled.o)
 .debug_macro   0x00003fc1       0x5d /home/vitor/git/lpcxpresso/Lib_EaBaseBoard/Debug/libLib_EaBaseBoard.a(oled.o)
 .debug_macro   0x0000401e       0x40 /home/vitor/git/lpcxpresso/Lib_EaBaseBoard/Debug/libLib_EaBaseBoard.a(oled.o)
 .debug_macro   0x0000405e      0x192 /home/vitor/git/lpcxpresso/Lib_EaBaseBoard/Debug/libLib_EaBaseBoard.a(oled.o)
 .debug_macro   0x000041f0       0x1a /home/vitor/git/lpcxpresso/Lib_EaBaseBoard/Debug/libLib_EaBaseBoard.a(font5x7.o)
 .debug_macro   0x0000420a      0x696 /home/vitor/git/lpcxpresso/Lib_EaBaseBoard/Debug/libLib_EaBaseBoard.a(font5x7.o)
 .debug_macro   0x000048a0       0x89 /home/vitor/git/lpcxpresso/Lib_MCU/Debug/libLib_MCU.a(lpc17xx_gpio.o)
 .debug_macro   0x00004929       0xcb /home/vitor/git/lpcxpresso/Lib_MCU/Debug/libLib_MCU.a(lpc17xx_gpio.o)
 .debug_macro   0x000049f4       0x80 /home/vitor/git/lpcxpresso/Lib_MCU/Debug/libLib_MCU.a(lpc17xx_pinsel.o)
 .debug_macro   0x00004a74       0x92 /home/vitor/git/lpcxpresso/Lib_MCU/Debug/libLib_MCU.a(lpc17xx_ssp.o)
 .debug_macro   0x00004b06      0x2a9 /home/vitor/git/lpcxpresso/Lib_MCU/Debug/libLib_MCU.a(lpc17xx_ssp.o)
 .debug_macro   0x00004daf      0x2fe /home/vitor/git/lpcxpresso/Lib_MCU/Debug/libLib_MCU.a(lpc17xx_ssp.o)
 .debug_macro   0x000050ad       0x9b /home/vitor/git/lpcxpresso/Lib_MCU/Debug/libLib_MCU.a(lpc17xx_timer.o)
 .debug_macro   0x00005148       0xe3 /home/vitor/git/lpcxpresso/Lib_MCU/Debug/libLib_MCU.a(lpc17xx_timer.o)
 .debug_macro   0x0000522b      0x149 /home/vitor/git/lpcxpresso/Lib_MCU/Debug/libLib_MCU.a(lpc17xx_timer.o)
 .debug_macro   0x00005374       0x80 /home/vitor/git/lpcxpresso/Lib_MCU/Debug/libLib_MCU.a(lpc17xx_clkpwr.o)
 .debug_macro   0x000053f4      0x2f8 /home/vitor/git/lpcxpresso/Lib_MCU/Debug/libLib_MCU.a(lpc17xx_clkpwr.o)

.debug_line     0x00000000     0x2478
 .debug_line    0x00000000      0x2e8 ./src/cr_startup_lpc17.o
 .debug_line    0x000002e8      0x3c4 ./src/main.o
 .debug_line    0x000006ac      0x1eb /home/vitor/git/lpcxpresso/CMSISv1p30_LPC17xx/Debug/libCMSISv1p30_LPC17xx.a(system_LPC17xx.o)
 .debug_line    0x00000897      0x667 /home/vitor/git/lpcxpresso/Lib_EaBaseBoard/Debug/libLib_EaBaseBoard.a(oled.o)
 .debug_line    0x00000efe       0x70 /home/vitor/git/lpcxpresso/Lib_EaBaseBoard/Debug/libLib_EaBaseBoard.a(font5x7.o)
 .debug_line    0x00000f6e      0x453 /home/vitor/git/lpcxpresso/Lib_MCU/Debug/libLib_MCU.a(lpc17xx_gpio.o)
 .debug_line    0x000013c1      0x2d0 /home/vitor/git/lpcxpresso/Lib_MCU/Debug/libLib_MCU.a(lpc17xx_pinsel.o)
 .debug_line    0x00001691      0x606 /home/vitor/git/lpcxpresso/Lib_MCU/Debug/libLib_MCU.a(lpc17xx_ssp.o)
 .debug_line    0x00001c97      0x4c5 /home/vitor/git/lpcxpresso/Lib_MCU/Debug/libLib_MCU.a(lpc17xx_timer.o)
 .debug_line    0x0000215c      0x31c /home/vitor/git/lpcxpresso/Lib_MCU/Debug/libLib_MCU.a(lpc17xx_clkpwr.o)

.debug_str      0x00000000    0x10e42
 .debug_str     0x00000000     0x2ea1 ./src/cr_startup_lpc17.o
                               0x2fec (size before relaxing)
 .debug_str     0x00002ea1     0x6488 ./src/main.o
                               0x9369 (size before relaxing)
 .debug_str     0x00009329     0x1ba6 /home/vitor/git/lpcxpresso/CMSISv1p30_LPC17xx/Debug/libCMSISv1p30_LPC17xx.a(system_LPC17xx.o)
                               0x7ee6 (size before relaxing)
 .debug_str     0x0000aecf     0x3160 /home/vitor/git/lpcxpresso/Lib_EaBaseBoard/Debug/libLib_EaBaseBoard.a(oled.o)
                               0xb4a5 (size before relaxing)
 .debug_str     0x0000e02f      0xe21 /home/vitor/git/lpcxpresso/Lib_EaBaseBoard/Debug/libLib_EaBaseBoard.a(font5x7.o)
                               0x31d0 (size before relaxing)
 .debug_str     0x0000ee50      0x499 /home/vitor/git/lpcxpresso/Lib_MCU/Debug/libLib_MCU.a(lpc17xx_gpio.o)
                               0x76f0 (size before relaxing)
 .debug_str     0x0000f2e9      0x22d /home/vitor/git/lpcxpresso/Lib_MCU/Debug/libLib_MCU.a(lpc17xx_pinsel.o)
                               0x7729 (size before relaxing)
 .debug_str     0x0000f516     0x1438 /home/vitor/git/lpcxpresso/Lib_MCU/Debug/libLib_MCU.a(lpc17xx_ssp.o)
                               0x9718 (size before relaxing)
 .debug_str     0x0001094e      0x45c /home/vitor/git/lpcxpresso/Lib_MCU/Debug/libLib_MCU.a(lpc17xx_timer.o)
                               0x94a4 (size before relaxing)
 .debug_str     0x00010daa       0x98 /home/vitor/git/lpcxpresso/Lib_MCU/Debug/libLib_MCU.a(lpc17xx_clkpwr.o)
                               0x849f (size before relaxing)

.comment        0x00000000       0x70
 .comment       0x00000000       0x70 ./src/cr_startup_lpc17.o
                                 0x71 (size before relaxing)
 .comment       0x00000000       0x71 ./src/main.o
 .comment       0x00000000       0x71 /home/vitor/git/lpcxpresso/CMSISv1p30_LPC17xx/Debug/libCMSISv1p30_LPC17xx.a(system_LPC17xx.o)
 .comment       0x00000000       0x71 /home/vitor/git/lpcxpresso/Lib_EaBaseBoard/Debug/libLib_EaBaseBoard.a(oled.o)
 .comment       0x00000000       0x71 /home/vitor/git/lpcxpresso/Lib_EaBaseBoard/Debug/libLib_EaBaseBoard.a(font5x7.o)
 .comment       0x00000000       0x71 /home/vitor/git/lpcxpresso/Lib_MCU/Debug/libLib_MCU.a(lpc17xx_gpio.o)
 .comment       0x00000000       0x71 /home/vitor/git/lpcxpresso/Lib_MCU/Debug/libLib_MCU.a(lpc17xx_pinsel.o)
 .comment       0x00000000       0x71 /home/vitor/git/lpcxpresso/Lib_MCU/Debug/libLib_MCU.a(lpc17xx_ssp.o)
 .comment       0x00000000       0x71 /home/vitor/git/lpcxpresso/Lib_MCU/Debug/libLib_MCU.a(lpc17xx_timer.o)
 .comment       0x00000000       0x71 /home/vitor/git/lpcxpresso/Lib_MCU/Debug/libLib_MCU.a(lpc17xx_clkpwr.o)

.ARM.attributes
                0x00000000       0x33
 .ARM.attributes
                0x00000000       0x33 ./src/cr_startup_lpc17.o
 .ARM.attributes
                0x00000033       0x33 ./src/main.o
 .ARM.attributes
                0x00000066       0x33 /home/vitor/git/lpcxpresso/CMSISv1p30_LPC17xx/Debug/libCMSISv1p30_LPC17xx.a(system_LPC17xx.o)
 .ARM.attributes
                0x00000099       0x33 /home/vitor/git/lpcxpresso/Lib_EaBaseBoard/Debug/libLib_EaBaseBoard.a(oled.o)
 .ARM.attributes
                0x000000cc       0x33 /home/vitor/git/lpcxpresso/Lib_EaBaseBoard/Debug/libLib_EaBaseBoard.a(font5x7.o)
 .ARM.attributes
                0x000000ff       0x33 /home/vitor/git/lpcxpresso/Lib_MCU/Debug/libLib_MCU.a(lpc17xx_gpio.o)
 .ARM.attributes
                0x00000132       0x33 /home/vitor/git/lpcxpresso/Lib_MCU/Debug/libLib_MCU.a(lpc17xx_pinsel.o)
 .ARM.attributes
                0x00000165       0x33 /home/vitor/git/lpcxpresso/Lib_MCU/Debug/libLib_MCU.a(lpc17xx_ssp.o)
 .ARM.attributes
                0x00000198       0x33 /home/vitor/git/lpcxpresso/Lib_MCU/Debug/libLib_MCU.a(lpc17xx_timer.o)
 .ARM.attributes
                0x000001cb       0x33 /home/vitor/git/lpcxpresso/Lib_MCU/Debug/libLib_MCU.a(lpc17xx_clkpwr.o)
 .ARM.attributes
                0x000001fe       0x1d /usr/local/lpcxpresso_7.3.0_186/lpcxpresso/tools/bin/../lib/gcc/arm-none-eabi/4.8.4/armv7-m/libgcc.a(_aeabi_uldivmod.o)
 .ARM.attributes
                0x0000021b       0x2d /usr/local/lpcxpresso_7.3.0_186/lpcxpresso/tools/bin/../lib/gcc/arm-none-eabi/4.8.4/armv7-m/libgcc.a(bpabi.o)
 .ARM.attributes
                0x00000248       0x1d /usr/local/lpcxpresso_7.3.0_186/lpcxpresso/tools/bin/../lib/gcc/arm-none-eabi/4.8.4/armv7-m/libgcc.a(_dvmd_tls.o)
 .ARM.attributes
                0x00000265       0x2d /usr/local/lpcxpresso_7.3.0_186/lpcxpresso/tools/bin/../lib/gcc/arm-none-eabi/4.8.4/armv7-m/libgcc.a(_divdi3.o)
 .ARM.attributes
                0x00000292       0x2d /usr/local/lpcxpresso_7.3.0_186/lpcxpresso/tools/bin/../lib/gcc/arm-none-eabi/4.8.4/armv7-m/libgcc.a(_udivdi3.o)
 .ARM.attributes
                0x000002bf       0x2d /usr/local/lpcxpresso_7.3.0_186/lpcxpresso/tools/bin/../lib/gcc/arm-none-eabi/4.8.4/../../../../arm-none-eabi/lib/armv7-m/libc.a(lib_a-memset.o)

.debug_frame    0x00000000      0xc70
 .debug_frame   0x00000000      0x120 ./src/cr_startup_lpc17.o
 .debug_frame   0x00000120       0xe0 ./src/main.o
 .debug_frame   0x00000200       0x3c /home/vitor/git/lpcxpresso/CMSISv1p30_LPC17xx/Debug/libCMSISv1p30_LPC17xx.a(system_LPC17xx.o)
 .debug_frame   0x0000023c      0x1f8 /home/vitor/git/lpcxpresso/Lib_EaBaseBoard/Debug/libLib_EaBaseBoard.a(oled.o)
 .debug_frame   0x00000434      0x238 /home/vitor/git/lpcxpresso/Lib_MCU/Debug/libLib_MCU.a(lpc17xx_gpio.o)
 .debug_frame   0x0000066c       0x88 /home/vitor/git/lpcxpresso/Lib_MCU/Debug/libLib_MCU.a(lpc17xx_pinsel.o)
 .debug_frame   0x000006f4      0x22c /home/vitor/git/lpcxpresso/Lib_MCU/Debug/libLib_MCU.a(lpc17xx_ssp.o)
 .debug_frame   0x00000920      0x1c4 /home/vitor/git/lpcxpresso/Lib_MCU/Debug/libLib_MCU.a(lpc17xx_timer.o)
 .debug_frame   0x00000ae4       0xa0 /home/vitor/git/lpcxpresso/Lib_MCU/Debug/libLib_MCU.a(lpc17xx_clkpwr.o)
 .debug_frame   0x00000b84       0x58 /usr/local/lpcxpresso_7.3.0_186/lpcxpresso/tools/bin/../lib/gcc/arm-none-eabi/4.8.4/armv7-m/libgcc.a(bpabi.o)
 .debug_frame   0x00000bdc       0x34 /usr/local/lpcxpresso_7.3.0_186/lpcxpresso/tools/bin/../lib/gcc/arm-none-eabi/4.8.4/armv7-m/libgcc.a(_divdi3.o)
 .debug_frame   0x00000c10       0x34 /usr/local/lpcxpresso_7.3.0_186/lpcxpresso/tools/bin/../lib/gcc/arm-none-eabi/4.8.4/armv7-m/libgcc.a(_udivdi3.o)
 .debug_frame   0x00000c44       0x2c /usr/local/lpcxpresso_7.3.0_186/lpcxpresso/tools/bin/../lib/gcc/arm-none-eabi/4.8.4/../../../../arm-none-eabi/lib/armv7-m/libc.a(lib_a-memset.o)

.debug_loc      0x00000000     0x2b17
 .debug_loc     0x00000000      0xeca /home/vitor/git/lpcxpresso/Lib_EaBaseBoard/Debug/libLib_EaBaseBoard.a(oled.o)
 .debug_loc     0x00000eca      0xa60 /home/vitor/git/lpcxpresso/Lib_MCU/Debug/libLib_MCU.a(lpc17xx_gpio.o)
 .debug_loc     0x0000192a      0x1c6 /home/vitor/git/lpcxpresso/Lib_MCU/Debug/libLib_MCU.a(lpc17xx_pinsel.o)
 .debug_loc     0x00001af0      0x8cc /home/vitor/git/lpcxpresso/Lib_MCU/Debug/libLib_MCU.a(lpc17xx_ssp.o)
 .debug_loc     0x000023bc      0x5b3 /home/vitor/git/lpcxpresso/Lib_MCU/Debug/libLib_MCU.a(lpc17xx_timer.o)
 .debug_loc     0x0000296f      0x1a8 /home/vitor/git/lpcxpresso/Lib_MCU/Debug/libLib_MCU.a(lpc17xx_clkpwr.o)
